{
  "_format": "hh-sol-artifact-1",
  "contractName": "WeatherNFT",
  "sourceName": "contracts/WeatherNFT.sol",
  "abi": [
    {
      "inputs": [],
      "stateMutability": "nonpayable",
      "type": "constructor"
    },
    {
      "anonymous": false,
      "inputs": [
        {
          "indexed": true,
          "internalType": "address",
          "name": "owner",
          "type": "address"
        },
        {
          "indexed": true,
          "internalType": "address",
          "name": "approved",
          "type": "address"
        },
        {
          "indexed": true,
          "internalType": "uint256",
          "name": "tokenId",
          "type": "uint256"
        }
      ],
      "name": "Approval",
      "type": "event"
    },
    {
      "anonymous": false,
      "inputs": [
        {
          "indexed": true,
          "internalType": "address",
          "name": "owner",
          "type": "address"
        },
        {
          "indexed": true,
          "internalType": "address",
          "name": "operator",
          "type": "address"
        },
        {
          "indexed": false,
          "internalType": "bool",
          "name": "approved",
          "type": "bool"
        }
      ],
      "name": "ApprovalForAll",
      "type": "event"
    },
    {
      "anonymous": false,
      "inputs": [
        {
          "indexed": true,
          "internalType": "address",
          "name": "previousOwner",
          "type": "address"
        },
        {
          "indexed": true,
          "internalType": "address",
          "name": "newOwner",
          "type": "address"
        }
      ],
      "name": "OwnershipTransferred",
      "type": "event"
    },
    {
      "anonymous": false,
      "inputs": [
        {
          "indexed": true,
          "internalType": "address",
          "name": "from",
          "type": "address"
        },
        {
          "indexed": true,
          "internalType": "address",
          "name": "to",
          "type": "address"
        },
        {
          "indexed": true,
          "internalType": "uint256",
          "name": "tokenId",
          "type": "uint256"
        }
      ],
      "name": "Transfer",
      "type": "event"
    },
    {
      "inputs": [
        {
          "internalType": "address",
          "name": "to",
          "type": "address"
        },
        {
          "internalType": "uint256",
          "name": "tokenId",
          "type": "uint256"
        }
      ],
      "name": "approve",
      "outputs": [],
      "stateMutability": "nonpayable",
      "type": "function"
    },
    {
      "inputs": [
        {
          "internalType": "address",
          "name": "owner",
          "type": "address"
        }
      ],
      "name": "balanceOf",
      "outputs": [
        {
          "internalType": "uint256",
          "name": "",
          "type": "uint256"
        }
      ],
      "stateMutability": "view",
      "type": "function"
    },
    {
      "inputs": [
        {
          "internalType": "uint256",
          "name": "tokenId",
          "type": "uint256"
        }
      ],
      "name": "getApproved",
      "outputs": [
        {
          "internalType": "address",
          "name": "",
          "type": "address"
        }
      ],
      "stateMutability": "view",
      "type": "function"
    },
    {
      "inputs": [
        {
          "internalType": "address",
          "name": "owner",
          "type": "address"
        },
        {
          "internalType": "address",
          "name": "operator",
          "type": "address"
        }
      ],
      "name": "isApprovedForAll",
      "outputs": [
        {
          "internalType": "bool",
          "name": "",
          "type": "bool"
        }
      ],
      "stateMutability": "view",
      "type": "function"
    },
    {
      "inputs": [],
      "name": "name",
      "outputs": [
        {
          "internalType": "string",
          "name": "",
          "type": "string"
        }
      ],
      "stateMutability": "view",
      "type": "function"
    },
    {
      "inputs": [],
      "name": "owner",
      "outputs": [
        {
          "internalType": "address",
          "name": "",
          "type": "address"
        }
      ],
      "stateMutability": "view",
      "type": "function"
    },
    {
      "inputs": [
        {
          "internalType": "uint256",
          "name": "tokenId",
          "type": "uint256"
        }
      ],
      "name": "ownerOf",
      "outputs": [
        {
          "internalType": "address",
          "name": "",
          "type": "address"
        }
      ],
      "stateMutability": "view",
      "type": "function"
    },
    {
      "inputs": [],
      "name": "renounceOwnership",
      "outputs": [],
      "stateMutability": "nonpayable",
      "type": "function"
    },
    {
      "inputs": [
        {
          "internalType": "address",
          "name": "to",
          "type": "address"
        }
      ],
      "name": "safeMint",
      "outputs": [],
      "stateMutability": "nonpayable",
      "type": "function"
    },
    {
      "inputs": [
        {
          "internalType": "address",
          "name": "from",
          "type": "address"
        },
        {
          "internalType": "address",
          "name": "to",
          "type": "address"
        },
        {
          "internalType": "uint256",
          "name": "tokenId",
          "type": "uint256"
        }
      ],
      "name": "safeTransferFrom",
      "outputs": [],
      "stateMutability": "nonpayable",
      "type": "function"
    },
    {
      "inputs": [
        {
          "internalType": "address",
          "name": "from",
          "type": "address"
        },
        {
          "internalType": "address",
          "name": "to",
          "type": "address"
        },
        {
          "internalType": "uint256",
          "name": "tokenId",
          "type": "uint256"
        },
        {
          "internalType": "bytes",
          "name": "_data",
          "type": "bytes"
        }
      ],
      "name": "safeTransferFrom",
      "outputs": [],
      "stateMutability": "nonpayable",
      "type": "function"
    },
    {
      "inputs": [
        {
          "internalType": "address",
          "name": "operator",
          "type": "address"
        },
        {
          "internalType": "bool",
          "name": "approved",
          "type": "bool"
        }
      ],
      "name": "setApprovalForAll",
      "outputs": [],
      "stateMutability": "nonpayable",
      "type": "function"
    },
    {
      "inputs": [
        {
          "internalType": "bytes4",
          "name": "interfaceId",
          "type": "bytes4"
        }
      ],
      "name": "supportsInterface",
      "outputs": [
        {
          "internalType": "bool",
          "name": "",
          "type": "bool"
        }
      ],
      "stateMutability": "view",
      "type": "function"
    },
    {
      "inputs": [],
      "name": "symbol",
      "outputs": [
        {
          "internalType": "string",
          "name": "",
          "type": "string"
        }
      ],
      "stateMutability": "view",
      "type": "function"
    },
    {
      "inputs": [
        {
          "internalType": "uint256",
          "name": "index",
          "type": "uint256"
        }
      ],
      "name": "tokenByIndex",
      "outputs": [
        {
          "internalType": "uint256",
          "name": "",
          "type": "uint256"
        }
      ],
      "stateMutability": "view",
      "type": "function"
    },
    {
      "inputs": [
        {
          "internalType": "address",
          "name": "owner",
          "type": "address"
        },
        {
          "internalType": "uint256",
          "name": "index",
          "type": "uint256"
        }
      ],
      "name": "tokenOfOwnerByIndex",
      "outputs": [
        {
          "internalType": "uint256",
          "name": "",
          "type": "uint256"
        }
      ],
      "stateMutability": "view",
      "type": "function"
    },
    {
      "inputs": [
        {
          "internalType": "uint256",
          "name": "tokenId",
          "type": "uint256"
        }
      ],
      "name": "tokenURI",
      "outputs": [
        {
          "internalType": "string",
          "name": "",
          "type": "string"
        }
      ],
      "stateMutability": "view",
      "type": "function"
    },
    {
      "inputs": [],
      "name": "totalSupply",
      "outputs": [
        {
          "internalType": "uint256",
          "name": "",
          "type": "uint256"
        }
      ],
      "stateMutability": "view",
      "type": "function"
    },
    {
      "inputs": [
        {
          "internalType": "address",
          "name": "from",
          "type": "address"
        },
        {
          "internalType": "address",
          "name": "to",
          "type": "address"
        },
        {
          "internalType": "uint256",
          "name": "tokenId",
          "type": "uint256"
        }
      ],
      "name": "transferFrom",
      "outputs": [],
      "stateMutability": "nonpayable",
      "type": "function"
    },
    {
      "inputs": [
        {
          "internalType": "address",
          "name": "newOwner",
          "type": "address"
        }
      ],
      "name": "transferOwnership",
      "outputs": [],
      "stateMutability": "nonpayable",
      "type": "function"
    }
  ],
  "bytecode": "0x610180604052606760e0818152608091829190620022006101003981526020016040518060a0016040528060698152602001620021976069913981526020016040518060800160405280605e815260200162002267605e913990526200006a90600d90600362000156565b503480156200007857600080fd5b50604080518082018252600a81526915d9585d1a195c93919560b21b6020808301918252835180850190945260048452632baa242960e11b908401528151919291620000c791600091620001ba565b508051620000dd906001906020840190620001ba565b505050620000fa620000f46200010060201b60201c565b62000104565b620002fc565b3390565b600b80546001600160a01b038381166001600160a01b0319831681179093556040519116919082907f8be0079c531659141344cd1fd0a4f28419497f9722a3daafe3b4186f6b6457e090600090a35050565b828054828255906000526020600020908101928215620001a8579160200282015b82811115620001a8578251805162000197918491602090910190620001ba565b509160200191906001019062000177565b50620001b692915062000245565b5090565b828054620001c890620002bf565b90600052602060002090601f016020900481019282620001ec576000855562000237565b82601f106200020757805160ff191683800117855562000237565b8280016001018555821562000237579182015b82811115620002375782518255916020019190600101906200021a565b50620001b692915062000266565b80821115620001b65760006200025c82826200027d565b5060010162000245565b5b80821115620001b6576000815560010162000267565b5080546200028b90620002bf565b6000825580601f106200029c575050565b601f016020900490600052602060002090810190620002bc919062000266565b50565b600181811c90821680620002d457607f821691505b60208210811415620002f657634e487b7160e01b600052602260045260246000fd5b50919050565b611e8b806200030c6000396000f3fe608060405234801561001057600080fd5b506004361061012c5760003560e01c80636352211e116100ad578063a22cb46511610071578063a22cb46514610266578063b88d4fde14610279578063c87b56dd1461028c578063e985e9c51461029f578063f2fde38b146102db57600080fd5b80636352211e1461021f57806370a0823114610232578063715018a6146102455780638da5cb5b1461024d57806395d89b411461025e57600080fd5b806323b872dd116100f457806323b872dd146101c05780632f745c59146101d357806340d097c3146101e657806342842e0e146101f95780634f6ccce71461020c57600080fd5b806301ffc9a71461013157806306fdde0314610159578063081812fc1461016e578063095ea7b31461019957806318160ddd146101ae575b600080fd5b61014461013f36600461193b565b6102ee565b60405190151581526020015b60405180910390f35b6101616102ff565b60405161015091906119b0565b61018161017c3660046119c3565b610391565b6040516001600160a01b039091168152602001610150565b6101ac6101a73660046119f8565b61041e565b005b6008545b604051908152602001610150565b6101ac6101ce366004611a22565b610534565b6101b26101e13660046119f8565b610565565b6101ac6101f4366004611a5e565b6105fb565b6101ac610207366004611a22565b610743565b6101b261021a3660046119c3565b61075e565b61018161022d3660046119c3565b6107f1565b6101b2610240366004611a5e565b610868565b6101ac6108ef565b600b546001600160a01b0316610181565b610161610955565b6101ac610274366004611a79565b610964565b6101ac610287366004611acb565b610973565b61016161029a3660046119c3565b6109ab565b6101446102ad366004611ba7565b6001600160a01b03918216600090815260056020908152604080832093909416825291909152205460ff1690565b6101ac6102e9366004611a5e565b6109b6565b60006102f982610a81565b92915050565b60606000805461030e90611bda565b80601f016020809104026020016040519081016040528092919081815260200182805461033a90611bda565b80156103875780601f1061035c57610100808354040283529160200191610387565b820191906000526020600020905b81548152906001019060200180831161036a57829003601f168201915b5050505050905090565b600061039c82610aa6565b6104025760405162461bcd60e51b815260206004820152602c60248201527f4552433732313a20617070726f76656420717565727920666f72206e6f6e657860448201526b34b9ba32b73a103a37b5b2b760a11b60648201526084015b60405180910390fd5b506000908152600460205260409020546001600160a01b031690565b6000610429826107f1565b9050806001600160a01b0316836001600160a01b031614156104975760405162461bcd60e51b815260206004820152602160248201527f4552433732313a20617070726f76616c20746f2063757272656e74206f776e656044820152603960f91b60648201526084016103f9565b336001600160a01b03821614806104b357506104b381336102ad565b6105255760405162461bcd60e51b815260206004820152603860248201527f4552433732313a20617070726f76652063616c6c6572206973206e6f74206f7760448201527f6e6572206e6f7220617070726f76656420666f7220616c6c000000000000000060648201526084016103f9565b61052f8383610ac3565b505050565b61053e3382610b31565b61055a5760405162461bcd60e51b81526004016103f990611c15565b61052f838383610c1b565b600061057083610868565b82106105d25760405162461bcd60e51b815260206004820152602b60248201527f455243373231456e756d657261626c653a206f776e657220696e646578206f7560448201526a74206f6620626f756e647360a81b60648201526084016103f9565b506001600160a01b03919091166000908152600660209081526040808320938352929052205490565b6000610606600c5490565b9050610616600c80546001019055565b6106208282610dc2565b6000600d60008154811061063657610636611c66565b90600052602060002001805461064b90611bda565b80601f016020809104026020016040519081016040528092919081815260200182805461067790611bda565b80156106c45780601f10610699576101008083540402835291602001916106c4565b820191906000526020600020905b8154815290600101906020018083116106a757829003601f168201915b505050505090506106d58282610ddc565b61052f6040518060400160405280601581526020017402227a7229090909036b4b73a32b2103a37b5b2b71605d1b815250836040518060400160405280601981526020017f20616e642061737369676e656420746f6b656e2075726c3a200000000000000081525084610e67565b61052f83838360405180602001604052806000815250610973565b600061076960085490565b82106107cc5760405162461bcd60e51b815260206004820152602c60248201527f455243373231456e756d657261626c653a20676c6f62616c20696e646578206f60448201526b7574206f6620626f756e647360a01b60648201526084016103f9565b600882815481106107df576107df611c66565b90600052602060002001549050919050565b6000818152600260205260408120546001600160a01b0316806102f95760405162461bcd60e51b815260206004820152602960248201527f4552433732313a206f776e657220717565727920666f72206e6f6e657869737460448201526832b73a103a37b5b2b760b91b60648201526084016103f9565b60006001600160a01b0382166108d35760405162461bcd60e51b815260206004820152602a60248201527f4552433732313a2062616c616e636520717565727920666f7220746865207a65604482015269726f206164647265737360b01b60648201526084016103f9565b506001600160a01b031660009081526003602052604090205490565b600b546001600160a01b031633146109495760405162461bcd60e51b815260206004820181905260248201527f4f776e61626c653a2063616c6c6572206973206e6f7420746865206f776e657260448201526064016103f9565b6109536000610eb0565b565b60606001805461030e90611bda565b61096f338383610f02565b5050565b61097d3383610b31565b6109995760405162461bcd60e51b81526004016103f990611c15565b6109a584848484610fd1565b50505050565b60606102f982611004565b600b546001600160a01b03163314610a105760405162461bcd60e51b815260206004820181905260248201527f4f776e61626c653a2063616c6c6572206973206e6f7420746865206f776e657260448201526064016103f9565b6001600160a01b038116610a755760405162461bcd60e51b815260206004820152602660248201527f4f776e61626c653a206e6577206f776e657220697320746865207a65726f206160448201526564647265737360d01b60648201526084016103f9565b610a7e81610eb0565b50565b60006001600160e01b0319821663780e9d6360e01b14806102f957506102f982611173565b6000908152600260205260409020546001600160a01b0316151590565b600081815260046020526040902080546001600160a01b0319166001600160a01b0384169081179091558190610af8826107f1565b6001600160a01b03167f8c5be1e5ebec7d5bd14f71427d1e84f3dd0314c0f7b2291e5b200ac8c7c3b92560405160405180910390a45050565b6000610b3c82610aa6565b610b9d5760405162461bcd60e51b815260206004820152602c60248201527f4552433732313a206f70657261746f7220717565727920666f72206e6f6e657860448201526b34b9ba32b73a103a37b5b2b760a11b60648201526084016103f9565b6000610ba8836107f1565b9050806001600160a01b0316846001600160a01b03161480610bef57506001600160a01b0380821660009081526005602090815260408083209388168352929052205460ff165b80610c135750836001600160a01b0316610c0884610391565b6001600160a01b0316145b949350505050565b826001600160a01b0316610c2e826107f1565b6001600160a01b031614610c925760405162461bcd60e51b815260206004820152602560248201527f4552433732313a207472616e736665722066726f6d20696e636f72726563742060448201526437bbb732b960d91b60648201526084016103f9565b6001600160a01b038216610cf45760405162461bcd60e51b8152602060048201526024808201527f4552433732313a207472616e7366657220746f20746865207a65726f206164646044820152637265737360e01b60648201526084016103f9565b610cff8383836111c3565b610d0a600082610ac3565b6001600160a01b0383166000908152600360205260408120805460019290610d33908490611c92565b90915550506001600160a01b0382166000908152600360205260408120805460019290610d61908490611ca9565b909155505060008181526002602052604080822080546001600160a01b0319166001600160a01b0386811691821790925591518493918716917fddf252ad1be2c89b69c2b068fc378daa952ba7f163c4a11628f55a4df523b3ef91a4505050565b61096f8282604051806020016040528060008152506111ce565b610de582610aa6565b610e485760405162461bcd60e51b815260206004820152602e60248201527f45524337323155524953746f726167653a2055524920736574206f66206e6f6e60448201526d32bc34b9ba32b73a103a37b5b2b760911b60648201526084016103f9565b6000828152600a60209081526040909120825161052f9284019061188c565b6109a584848484604051602401610e819493929190611cc1565b60408051601f198184030181529190526020810180516001600160e01b0316635ab84e1f60e01b179052611201565b600b80546001600160a01b038381166001600160a01b0319831681179093556040519116919082907f8be0079c531659141344cd1fd0a4f28419497f9722a3daafe3b4186f6b6457e090600090a35050565b816001600160a01b0316836001600160a01b03161415610f645760405162461bcd60e51b815260206004820152601960248201527f4552433732313a20617070726f766520746f2063616c6c65720000000000000060448201526064016103f9565b6001600160a01b03838116600081815260056020908152604080832094871680845294825291829020805460ff191686151590811790915591519182527f17307eab39ab6107e8899845ad3d59bd9653f200f220920489ca2b5937696c31910160405180910390a3505050565b610fdc848484610c1b565b610fe884848484611222565b6109a55760405162461bcd60e51b81526004016103f990611d0b565b606061100f82610aa6565b6110755760405162461bcd60e51b815260206004820152603160248201527f45524337323155524953746f726167653a2055524920717565727920666f72206044820152703737b732bc34b9ba32b73a103a37b5b2b760791b60648201526084016103f9565b6000828152600a60205260408120805461108e90611bda565b80601f01602080910402602001604051908101604052809291908181526020018280546110ba90611bda565b80156111075780601f106110dc57610100808354040283529160200191611107565b820191906000526020600020905b8154815290600101906020018083116110ea57829003601f168201915b50505050509050600061112560408051602081019091526000815290565b9050805160001415611138575092915050565b81511561116a578082604051602001611152929190611d5d565b60405160208183030381529060405292505050919050565b610c138461132f565b60006001600160e01b031982166380ac58cd60e01b14806111a457506001600160e01b03198216635b5e139f60e01b145b806102f957506301ffc9a760e01b6001600160e01b03198316146102f9565b61052f838383611407565b6111d883836114bf565b6111e56000848484611222565b61052f5760405162461bcd60e51b81526004016103f990611d0b565b80516a636f6e736f6c652e6c6f67602083016000808483855afa5050505050565b60006001600160a01b0384163b1561132457604051630a85bd0160e11b81526001600160a01b0385169063150b7a0290611266903390899088908890600401611d8c565b602060405180830381600087803b15801561128057600080fd5b505af19250505080156112b0575060408051601f3d908101601f191682019092526112ad91810190611dc9565b60015b61130a573d8080156112de576040519150601f19603f3d011682016040523d82523d6000602084013e6112e3565b606091505b5080516113025760405162461bcd60e51b81526004016103f990611d0b565b805181602001fd5b6001600160e01b031916630a85bd0160e11b149050610c13565b506001949350505050565b606061133a82610aa6565b61139e5760405162461bcd60e51b815260206004820152602f60248201527f4552433732314d657461646174613a2055524920717565727920666f72206e6f60448201526e3732bc34b9ba32b73a103a37b5b2b760891b60648201526084016103f9565b60006113b560408051602081019091526000815290565b905060008151116113d55760405180602001604052806000815250611400565b806113df846115fe565b6040516020016113f0929190611d5d565b6040516020818303038152906040525b9392505050565b6001600160a01b0383166114625761145d81600880546000838152600960205260408120829055600182018355919091527ff3f7a9fe364faab93b216da50a3214154f22a0a2b415b23a84c8169e8b636ee30155565b611485565b816001600160a01b0316836001600160a01b0316146114855761148583826116fc565b6001600160a01b03821661149c5761052f81611799565b826001600160a01b0316826001600160a01b03161461052f5761052f8282611848565b6001600160a01b0382166115155760405162461bcd60e51b815260206004820181905260248201527f4552433732313a206d696e7420746f20746865207a65726f206164647265737360448201526064016103f9565b61151e81610aa6565b1561156b5760405162461bcd60e51b815260206004820152601c60248201527f4552433732313a20746f6b656e20616c7265616479206d696e7465640000000060448201526064016103f9565b611577600083836111c3565b6001600160a01b03821660009081526003602052604081208054600192906115a0908490611ca9565b909155505060008181526002602052604080822080546001600160a01b0319166001600160a01b03861690811790915590518392907fddf252ad1be2c89b69c2b068fc378daa952ba7f163c4a11628f55a4df523b3ef908290a45050565b6060816116225750506040805180820190915260018152600360fc1b602082015290565b8160005b811561164c578061163681611de6565b91506116459050600a83611e17565b9150611626565b60008167ffffffffffffffff81111561166757611667611ab5565b6040519080825280601f01601f191660200182016040528015611691576020820181803683370190505b5090505b8415610c13576116a6600183611c92565b91506116b3600a86611e2b565b6116be906030611ca9565b60f81b8183815181106116d3576116d3611c66565b60200101906001600160f81b031916908160001a9053506116f5600a86611e17565b9450611695565b6000600161170984610868565b6117139190611c92565b600083815260076020526040902054909150808214611766576001600160a01b03841660009081526006602090815260408083208584528252808320548484528184208190558352600790915290208190555b5060009182526007602090815260408084208490556001600160a01b039094168352600681528383209183525290812055565b6008546000906117ab90600190611c92565b600083815260096020526040812054600880549394509092849081106117d3576117d3611c66565b9060005260206000200154905080600883815481106117f4576117f4611c66565b600091825260208083209091019290925582815260099091526040808220849055858252812055600880548061182c5761182c611e3f565b6001900381819060005260206000200160009055905550505050565b600061185383610868565b6001600160a01b039093166000908152600660209081526040808320868452825280832085905593825260079052919091209190915550565b82805461189890611bda565b90600052602060002090601f0160209004810192826118ba5760008555611900565b82601f106118d357805160ff1916838001178555611900565b82800160010185558215611900579182015b828111156119005782518255916020019190600101906118e5565b5061190c929150611910565b5090565b5b8082111561190c5760008155600101611911565b6001600160e01b031981168114610a7e57600080fd5b60006020828403121561194d57600080fd5b813561140081611925565b60005b8381101561197357818101518382015260200161195b565b838111156109a55750506000910152565b6000815180845261199c816020860160208601611958565b601f01601f19169290920160200192915050565b6020815260006114006020830184611984565b6000602082840312156119d557600080fd5b5035919050565b80356001600160a01b03811681146119f357600080fd5b919050565b60008060408385031215611a0b57600080fd5b611a14836119dc565b946020939093013593505050565b600080600060608486031215611a3757600080fd5b611a40846119dc565b9250611a4e602085016119dc565b9150604084013590509250925092565b600060208284031215611a7057600080fd5b611400826119dc565b60008060408385031215611a8c57600080fd5b611a95836119dc565b915060208301358015158114611aaa57600080fd5b809150509250929050565b634e487b7160e01b600052604160045260246000fd5b60008060008060808587031215611ae157600080fd5b611aea856119dc565b9350611af8602086016119dc565b925060408501359150606085013567ffffffffffffffff80821115611b1c57600080fd5b818701915087601f830112611b3057600080fd5b813581811115611b4257611b42611ab5565b604051601f8201601f19908116603f01168101908382118183101715611b6a57611b6a611ab5565b816040528281528a6020848701011115611b8357600080fd5b82602086016020830137600060208483010152809550505050505092959194509250565b60008060408385031215611bba57600080fd5b611bc3836119dc565b9150611bd1602084016119dc565b90509250929050565b600181811c90821680611bee57607f821691505b60208210811415611c0f57634e487b7160e01b600052602260045260246000fd5b50919050565b60208082526031908201527f4552433732313a207472616e736665722063616c6c6572206973206e6f74206f6040820152701ddb995c881b9bdc88185c1c1c9bdd9959607a1b606082015260800190565b634e487b7160e01b600052603260045260246000fd5b634e487b7160e01b600052601160045260246000fd5b600082821015611ca457611ca4611c7c565b500390565b60008219821115611cbc57611cbc611c7c565b500190565b608081526000611cd46080830187611984565b8560208401528281036040840152611cec8186611984565b90508281036060840152611d008185611984565b979650505050505050565b60208082526032908201527f4552433732313a207472616e7366657220746f206e6f6e20455243373231526560408201527131b2b4bb32b91034b6b83632b6b2b73a32b960711b606082015260800190565b60008351611d6f818460208801611958565b835190830190611d83818360208801611958565b01949350505050565b6001600160a01b0385811682528416602082015260408101839052608060608201819052600090611dbf90830184611984565b9695505050505050565b600060208284031215611ddb57600080fd5b815161140081611925565b6000600019821415611dfa57611dfa611c7c565b5060010190565b634e487b7160e01b600052601260045260246000fd5b600082611e2657611e26611e01565b500490565b600082611e3a57611e3a611e01565b500690565b634e487b7160e01b600052603160045260246000fdfea2646970667358221220a6f94063f034e7b10c70ee7f1cc41ef53900cca99a9145523184c596b9d6ff7d64736f6c6343000809003368747470733a2f2f697066732e696f2f697066732f516d53334a50434247746d684b33627372726f55743963376f617451344b31464b597741663456746864434e7a643f66696c656e616d653d6772696e6e696e672d737175696e74696e672d666163652e6a736f6e68747470733a2f2f697066732e696f2f697066732f516d624d4e727a553271526e68527644486d6143687a6641367071333651737759687a4e466f7145576f45614d693f66696c656e616d653d736c696768746c792d736d696c696e672d666163652e6a736f6e68747470733a2f2f697066732e696f2f697066732f516d51665856755833574375515357336e3274576b396754585851587250396b76505936504d37575a4439714b673f66696c656e616d653d70656e736976652d666163652e6a736f6e",
  "linkReferences": {},
  "deployedLinkReferences": {}
}