{
  "_format": "hh-sol-artifact-1",
  "contractName": "WeatherNFT",
  "sourceName": "contracts/WeatherNFT.sol",
  "abi": [
    {
      "inputs": [
        {
          "internalType": "uint256",
          "name": "updateInterval",
          "type": "uint256"
        }
      ],
      "stateMutability": "nonpayable",
      "type": "constructor"
    },
    {
      "anonymous": false,
      "inputs": [
        {
          "indexed": true,
          "internalType": "address",
          "name": "owner",
          "type": "address"
        },
        {
          "indexed": true,
          "internalType": "address",
          "name": "approved",
          "type": "address"
        },
        {
          "indexed": true,
          "internalType": "uint256",
          "name": "tokenId",
          "type": "uint256"
        }
      ],
      "name": "Approval",
      "type": "event"
    },
    {
      "anonymous": false,
      "inputs": [
        {
          "indexed": true,
          "internalType": "address",
          "name": "owner",
          "type": "address"
        },
        {
          "indexed": true,
          "internalType": "address",
          "name": "operator",
          "type": "address"
        },
        {
          "indexed": false,
          "internalType": "bool",
          "name": "approved",
          "type": "bool"
        }
      ],
      "name": "ApprovalForAll",
      "type": "event"
    },
    {
      "anonymous": false,
      "inputs": [
        {
          "indexed": false,
          "internalType": "uint256",
          "name": "_result",
          "type": "uint256"
        }
      ],
      "name": "AvgTemp",
      "type": "event"
    },
    {
      "anonymous": false,
      "inputs": [
        {
          "indexed": true,
          "internalType": "bytes32",
          "name": "id",
          "type": "bytes32"
        }
      ],
      "name": "ChainlinkCancelled",
      "type": "event"
    },
    {
      "anonymous": false,
      "inputs": [
        {
          "indexed": true,
          "internalType": "bytes32",
          "name": "id",
          "type": "bytes32"
        }
      ],
      "name": "ChainlinkFulfilled",
      "type": "event"
    },
    {
      "anonymous": false,
      "inputs": [
        {
          "indexed": true,
          "internalType": "bytes32",
          "name": "id",
          "type": "bytes32"
        }
      ],
      "name": "ChainlinkRequested",
      "type": "event"
    },
    {
      "anonymous": false,
      "inputs": [
        {
          "indexed": true,
          "internalType": "address",
          "name": "previousOwner",
          "type": "address"
        },
        {
          "indexed": true,
          "internalType": "address",
          "name": "newOwner",
          "type": "address"
        }
      ],
      "name": "OwnershipTransferred",
      "type": "event"
    },
    {
      "anonymous": false,
      "inputs": [
        {
          "indexed": false,
          "internalType": "uint256",
          "name": "index",
          "type": "uint256"
        }
      ],
      "name": "TokensUpdated",
      "type": "event"
    },
    {
      "anonymous": false,
      "inputs": [
        {
          "indexed": true,
          "internalType": "address",
          "name": "from",
          "type": "address"
        },
        {
          "indexed": true,
          "internalType": "address",
          "name": "to",
          "type": "address"
        },
        {
          "indexed": true,
          "internalType": "uint256",
          "name": "tokenId",
          "type": "uint256"
        }
      ],
      "name": "Transfer",
      "type": "event"
    },
    {
      "inputs": [
        {
          "internalType": "address",
          "name": "to",
          "type": "address"
        },
        {
          "internalType": "uint256",
          "name": "tokenId",
          "type": "uint256"
        }
      ],
      "name": "approve",
      "outputs": [],
      "stateMutability": "nonpayable",
      "type": "function"
    },
    {
      "inputs": [
        {
          "internalType": "address",
          "name": "owner",
          "type": "address"
        }
      ],
      "name": "balanceOf",
      "outputs": [
        {
          "internalType": "uint256",
          "name": "",
          "type": "uint256"
        }
      ],
      "stateMutability": "view",
      "type": "function"
    },
    {
      "inputs": [
        {
          "internalType": "uint256",
          "name": "_year",
          "type": "uint256"
        },
        {
          "internalType": "uint256",
          "name": "_month",
          "type": "uint256"
        },
        {
          "internalType": "uint256",
          "name": "_day",
          "type": "uint256"
        }
      ],
      "name": "buildDateString",
      "outputs": [
        {
          "internalType": "string",
          "name": "",
          "type": "string"
        }
      ],
      "stateMutability": "pure",
      "type": "function"
    },
    {
      "inputs": [
        {
          "internalType": "bytes",
          "name": "",
          "type": "bytes"
        }
      ],
      "name": "checkUpkeep",
      "outputs": [
        {
          "internalType": "bool",
          "name": "upkeepNeeded",
          "type": "bool"
        },
        {
          "internalType": "bytes",
          "name": "",
          "type": "bytes"
        }
      ],
      "stateMutability": "view",
      "type": "function"
    },
    {
      "inputs": [],
      "name": "currentTemperature",
      "outputs": [
        {
          "internalType": "uint256",
          "name": "",
          "type": "uint256"
        }
      ],
      "stateMutability": "view",
      "type": "function"
    },
    {
      "inputs": [
        {
          "internalType": "bytes32",
          "name": "_requestId",
          "type": "bytes32"
        },
        {
          "internalType": "uint256",
          "name": "_result",
          "type": "uint256"
        }
      ],
      "name": "fulfillAvgTemp",
      "outputs": [],
      "stateMutability": "nonpayable",
      "type": "function"
    },
    {
      "inputs": [
        {
          "internalType": "uint256",
          "name": "tokenId",
          "type": "uint256"
        }
      ],
      "name": "getApproved",
      "outputs": [
        {
          "internalType": "address",
          "name": "",
          "type": "address"
        }
      ],
      "stateMutability": "view",
      "type": "function"
    },
    {
      "inputs": [],
      "name": "interval",
      "outputs": [
        {
          "internalType": "uint256",
          "name": "",
          "type": "uint256"
        }
      ],
      "stateMutability": "view",
      "type": "function"
    },
    {
      "inputs": [
        {
          "internalType": "address",
          "name": "owner",
          "type": "address"
        },
        {
          "internalType": "address",
          "name": "operator",
          "type": "address"
        }
      ],
      "name": "isApprovedForAll",
      "outputs": [
        {
          "internalType": "bool",
          "name": "",
          "type": "bool"
        }
      ],
      "stateMutability": "view",
      "type": "function"
    },
    {
      "inputs": [],
      "name": "lastTimestamp",
      "outputs": [
        {
          "internalType": "uint256",
          "name": "",
          "type": "uint256"
        }
      ],
      "stateMutability": "view",
      "type": "function"
    },
    {
      "inputs": [],
      "name": "name",
      "outputs": [
        {
          "internalType": "string",
          "name": "",
          "type": "string"
        }
      ],
      "stateMutability": "view",
      "type": "function"
    },
    {
      "inputs": [],
      "name": "owner",
      "outputs": [
        {
          "internalType": "address",
          "name": "",
          "type": "address"
        }
      ],
      "stateMutability": "view",
      "type": "function"
    },
    {
      "inputs": [
        {
          "internalType": "uint256",
          "name": "tokenId",
          "type": "uint256"
        }
      ],
      "name": "ownerOf",
      "outputs": [
        {
          "internalType": "address",
          "name": "",
          "type": "address"
        }
      ],
      "stateMutability": "view",
      "type": "function"
    },
    {
      "inputs": [
        {
          "internalType": "bytes",
          "name": "",
          "type": "bytes"
        }
      ],
      "name": "performUpkeep",
      "outputs": [],
      "stateMutability": "nonpayable",
      "type": "function"
    },
    {
      "inputs": [],
      "name": "renounceOwnership",
      "outputs": [],
      "stateMutability": "nonpayable",
      "type": "function"
    },
    {
      "inputs": [
        {
          "internalType": "address",
          "name": "to",
          "type": "address"
        }
      ],
      "name": "safeMint",
      "outputs": [],
      "stateMutability": "nonpayable",
      "type": "function"
    },
    {
      "inputs": [
        {
          "internalType": "address",
          "name": "from",
          "type": "address"
        },
        {
          "internalType": "address",
          "name": "to",
          "type": "address"
        },
        {
          "internalType": "uint256",
          "name": "tokenId",
          "type": "uint256"
        }
      ],
      "name": "safeTransferFrom",
      "outputs": [],
      "stateMutability": "nonpayable",
      "type": "function"
    },
    {
      "inputs": [
        {
          "internalType": "address",
          "name": "from",
          "type": "address"
        },
        {
          "internalType": "address",
          "name": "to",
          "type": "address"
        },
        {
          "internalType": "uint256",
          "name": "tokenId",
          "type": "uint256"
        },
        {
          "internalType": "bytes",
          "name": "_data",
          "type": "bytes"
        }
      ],
      "name": "safeTransferFrom",
      "outputs": [],
      "stateMutability": "nonpayable",
      "type": "function"
    },
    {
      "inputs": [
        {
          "internalType": "address",
          "name": "operator",
          "type": "address"
        },
        {
          "internalType": "bool",
          "name": "approved",
          "type": "bool"
        }
      ],
      "name": "setApprovalForAll",
      "outputs": [],
      "stateMutability": "nonpayable",
      "type": "function"
    },
    {
      "inputs": [
        {
          "internalType": "bytes4",
          "name": "interfaceId",
          "type": "bytes4"
        }
      ],
      "name": "supportsInterface",
      "outputs": [
        {
          "internalType": "bool",
          "name": "",
          "type": "bool"
        }
      ],
      "stateMutability": "view",
      "type": "function"
    },
    {
      "inputs": [],
      "name": "symbol",
      "outputs": [
        {
          "internalType": "string",
          "name": "",
          "type": "string"
        }
      ],
      "stateMutability": "view",
      "type": "function"
    },
    {
      "inputs": [
        {
          "internalType": "uint256",
          "name": "index",
          "type": "uint256"
        }
      ],
      "name": "tokenByIndex",
      "outputs": [
        {
          "internalType": "uint256",
          "name": "",
          "type": "uint256"
        }
      ],
      "stateMutability": "view",
      "type": "function"
    },
    {
      "inputs": [
        {
          "internalType": "address",
          "name": "owner",
          "type": "address"
        },
        {
          "internalType": "uint256",
          "name": "index",
          "type": "uint256"
        }
      ],
      "name": "tokenOfOwnerByIndex",
      "outputs": [
        {
          "internalType": "uint256",
          "name": "",
          "type": "uint256"
        }
      ],
      "stateMutability": "view",
      "type": "function"
    },
    {
      "inputs": [
        {
          "internalType": "uint256",
          "name": "tokenId",
          "type": "uint256"
        }
      ],
      "name": "tokenURI",
      "outputs": [
        {
          "internalType": "string",
          "name": "",
          "type": "string"
        }
      ],
      "stateMutability": "view",
      "type": "function"
    },
    {
      "inputs": [],
      "name": "totalSupply",
      "outputs": [
        {
          "internalType": "uint256",
          "name": "",
          "type": "uint256"
        }
      ],
      "stateMutability": "view",
      "type": "function"
    },
    {
      "inputs": [
        {
          "internalType": "address",
          "name": "from",
          "type": "address"
        },
        {
          "internalType": "address",
          "name": "to",
          "type": "address"
        },
        {
          "internalType": "uint256",
          "name": "tokenId",
          "type": "uint256"
        }
      ],
      "name": "transferFrom",
      "outputs": [],
      "stateMutability": "nonpayable",
      "type": "function"
    },
    {
      "inputs": [
        {
          "internalType": "address",
          "name": "newOwner",
          "type": "address"
        }
      ],
      "name": "transferOwnership",
      "outputs": [],
      "stateMutability": "nonpayable",
      "type": "function"
    }
  ],
  "bytecode": "0x6001601055610180604052606760e08181526080918291906200343b6101003981526020016040518060a0016040528060698152602001620033356069913981526020016040518060800160405280605e8152602001620034a2605e913990526200006f90601b90600362000264565b503480156200007d57600080fd5b506040516200350038038062003500833981016040819052620000a091620003cd565b604080518082018252600a81526915d9585d1a195c93919560b21b60208083019182528351808501909452600784526615d5121493919560ca1b908401528151919291620000f191600091620002c8565b50805162000107906001906020840190620002c8565b505050620001246200011e6200020e60201b60201c565b62000212565b601381905542601455601580546001600160a01b031990811673326c977e6efc84e512bb9c30f76e30c160ed06fb1790915567016345785d8a00006016556017805490911673292d4cc76c00d9682230fc712f6b1419ef88ac9b1790557f31373839326436643731323434636330383564633136343538616336336364376018556040805160c08101909152609d8082526200339e60208301398051620001d491601991602090910190620002c8565b5050601554600e80546001600160a01b039283166001600160a01b031991821617909155601754600f805491909316911617905562000424565b3390565b600b80546001600160a01b038381166001600160a01b0319831681179093556040519116919082907f8be0079c531659141344cd1fd0a4f28419497f9722a3daafe3b4186f6b6457e090600090a35050565b828054828255906000526020600020908101928215620002b6579160200282015b82811115620002b65782518051620002a5918491602090910190620002c8565b509160200191906001019062000285565b50620002c492915062000353565b5090565b828054620002d690620003e7565b90600052602060002090601f016020900481019282620002fa576000855562000345565b82601f106200031557805160ff191683800117855562000345565b8280016001018555821562000345579182015b828111156200034557825182559160200191906001019062000328565b50620002c492915062000374565b80821115620002c45760006200036a82826200038b565b5060010162000353565b5b80821115620002c4576000815560010162000375565b5080546200039990620003e7565b6000825580601f10620003aa575050565b601f016020900490600052602060002090810190620003ca919062000374565b50565b600060208284031215620003e057600080fd5b5051919050565b600181811c90821680620003fc57607f821691505b602082108114156200041e57634e487b7160e01b600052602260045260246000fd5b50919050565b612f0180620004346000396000f3fe608060405234801561001057600080fd5b50600436106101a95760003560e01c806352e3ba9f116100f957806395d89b4111610097578063c87b56dd11610071578063c87b56dd14610375578063cf990eb314610388578063e985e9c514610391578063f2fde38b146103cd57600080fd5b806395d89b4114610347578063a22cb4651461034f578063b88d4fde1461036257600080fd5b806370a08231116100d357806370a0823114610312578063715018a6146103255780638da5cb5b1461032d578063947a36fb1461033e57600080fd5b806352e3ba9f146102cb5780636352211e146102de5780636e04ff0d146102f157600080fd5b806323b872dd1161016657806340d097c31161014057806340d097c31461027f57806342842e0e146102925780634585e33b146102a55780634f6ccce7146102b857600080fd5b806323b872dd146102465780632a3508dc146102595780632f745c591461026c57600080fd5b806301ffc9a7146101ae57806306fdde03146101d6578063081812fc146101eb578063095ea7b31461021657806318160ddd1461022b57806319d8ac611461023d575b600080fd5b6101c16101bc3660046126db565b6103e0565b60405190151581526020015b60405180910390f35b6101de6103f1565b6040516101cd9190612750565b6101fe6101f9366004612763565b610483565b6040516001600160a01b0390911681526020016101cd565b610229610224366004612798565b610510565b005b6008545b6040519081526020016101cd565b61022f60145481565b6102296102543660046127c2565b610626565b6102296102673660046127fe565b610657565b61022f61027a366004612798565b610754565b61022961028d366004612820565b6107ea565b6102296102a03660046127c2565b6108ee565b6102296102b336600461283b565b610909565b61022f6102c6366004612763565b610969565b6101de6102d93660046128ad565b6109fc565b6101fe6102ec366004612763565b610a58565b6103046102ff36600461283b565b610acf565b6040516101cd9291906128d9565b61022f610320366004612820565b610aee565b610229610b75565b600b546001600160a01b03166101fe565b61022f60135481565b6101de610bab565b61022961035d366004612902565b610bba565b61022961037036600461294f565b610bc5565b6101de610383366004612763565b610bfd565b61022f601a5481565b6101c161039f366004612a2b565b6001600160a01b03918216600090815260056020908152604080832093909416825291909152205460ff1690565b6102296103db366004612820565b610c08565b60006103eb82610ca3565b92915050565b60606000805461040090612a5e565b80601f016020809104026020016040519081016040528092919081815260200182805461042c90612a5e565b80156104795780601f1061044e57610100808354040283529160200191610479565b820191906000526020600020905b81548152906001019060200180831161045c57829003601f168201915b5050505050905090565b600061048e82610cc8565b6104f45760405162461bcd60e51b815260206004820152602c60248201527f4552433732313a20617070726f76656420717565727920666f72206e6f6e657860448201526b34b9ba32b73a103a37b5b2b760a11b60648201526084015b60405180910390fd5b506000908152600460205260409020546001600160a01b031690565b600061051b82610a58565b9050806001600160a01b0316836001600160a01b031614156105895760405162461bcd60e51b815260206004820152602160248201527f4552433732313a20617070726f76616c20746f2063757272656e74206f776e656044820152603960f91b60648201526084016104eb565b336001600160a01b03821614806105a557506105a5813361039f565b6106175760405162461bcd60e51b815260206004820152603860248201527f4552433732313a20617070726f76652063616c6c6572206973206e6f74206f7760448201527f6e6572206e6f7220617070726f76656420666f7220616c6c000000000000000060648201526084016104eb565b6106218383610ce5565b505050565b6106303382610d53565b61064c5760405162461bcd60e51b81526004016104eb90612a93565b610621838383610e3d565b60008281526011602052604090205482906001600160a01b031633146106d05760405162461bcd60e51b815260206004820152602860248201527f536f75726365206d75737420626520746865206f7261636c65206f6620746865604482015267081c995c5d595cdd60c21b60648201526084016104eb565b60008181526011602052604080822080546001600160a01b03191690555182917f7cc135e0cebb02c3480ae5d74d377283180a2601f8f644edf7987b009316c63a91a261071c82610fe4565b6040518281527fe5e26a600dc81b241131b3541c3c53d9b02d780f102c65b08b91fd57998e3b729060200160405180910390a1505050565b600061075f83610aee565b82106107c15760405162461bcd60e51b815260206004820152602b60248201527f455243373231456e756d657261626c653a206f776e657220696e646578206f7560448201526a74206f6620626f756e647360a81b60648201526084016104eb565b506001600160a01b03919091166000908152600660209081526040808320938352929052205490565b600b546001600160a01b031633146108145760405162461bcd60e51b81526004016104eb90612ae4565b600061081f60125490565b905061082f601280546001019055565b610839828261118e565b6000601b60008154811061084f5761084f612b19565b90600052602060002001805461086490612a5e565b80601f016020809104026020016040519081016040528092919081815260200182805461089090612a5e565b80156108dd5780601f106108b2576101008083540402835291602001916108dd565b820191906000526020600020905b8154815290600101906020018083116108c057829003601f168201915b5050505050905061062182826111a8565b61062183838360405180602001604052806000815250610bc5565b6013546014546109199042612b45565b111561092b57610927611233565b5050565b6109276040518060400160405280602081526020017f55504b45455020494e54455256414c204953205354494c4c204e4f5420555021815250611464565b600061097460085490565b82106109d75760405162461bcd60e51b815260206004820152602c60248201527f455243373231456e756d657261626c653a20676c6f62616c20696e646578206f60448201526b7574206f6620626f756e647360a01b60648201526084016104eb565b600882815481106109ea576109ea612b19565b90600052602060002001549050919050565b60606000610a09856114a7565b90506000610a16856114a7565b90506000610a23856114a7565b90506000838383604051602001610a3c93929190612b5c565b60408051808303601f1901815291905298975050505050505050565b6000818152600260205260408120546001600160a01b0316806103eb5760405162461bcd60e51b815260206004820152602960248201527f4552433732313a206f776e657220717565727920666f72206e6f6e657869737460448201526832b73a103a37b5b2b760b91b60648201526084016104eb565b6000606060135460145442610ae49190612b45565b1191509250929050565b60006001600160a01b038216610b595760405162461bcd60e51b815260206004820152602a60248201527f4552433732313a2062616c616e636520717565727920666f7220746865207a65604482015269726f206164647265737360b01b60648201526084016104eb565b506001600160a01b031660009081526003602052604090205490565b600b546001600160a01b03163314610b9f5760405162461bcd60e51b81526004016104eb90612ae4565b610ba960006115a5565b565b60606001805461040090612a5e565b6109273383836115f7565b610bcf3383610d53565b610beb5760405162461bcd60e51b81526004016104eb90612a93565b610bf7848484846116c6565b50505050565b60606103eb826116f9565b600b546001600160a01b03163314610c325760405162461bcd60e51b81526004016104eb90612ae4565b6001600160a01b038116610c975760405162461bcd60e51b815260206004820152602660248201527f4f776e61626c653a206e6577206f776e657220697320746865207a65726f206160448201526564647265737360d01b60648201526084016104eb565b610ca0816115a5565b50565b60006001600160e01b0319821663780e9d6360e01b14806103eb57506103eb82611868565b6000908152600260205260409020546001600160a01b0316151590565b600081815260046020526040902080546001600160a01b0319166001600160a01b0384169081179091558190610d1a82610a58565b6001600160a01b03167f8c5be1e5ebec7d5bd14f71427d1e84f3dd0314c0f7b2291e5b200ac8c7c3b92560405160405180910390a45050565b6000610d5e82610cc8565b610dbf5760405162461bcd60e51b815260206004820152602c60248201527f4552433732313a206f70657261746f7220717565727920666f72206e6f6e657860448201526b34b9ba32b73a103a37b5b2b760a11b60648201526084016104eb565b6000610dca83610a58565b9050806001600160a01b0316846001600160a01b03161480610e1157506001600160a01b0380821660009081526005602090815260408083209388168352929052205460ff165b80610e355750836001600160a01b0316610e2a84610483565b6001600160a01b0316145b949350505050565b826001600160a01b0316610e5082610a58565b6001600160a01b031614610eb45760405162461bcd60e51b815260206004820152602560248201527f4552433732313a207472616e736665722066726f6d20696e636f72726563742060448201526437bbb732b960d91b60648201526084016104eb565b6001600160a01b038216610f165760405162461bcd60e51b8152602060048201526024808201527f4552433732313a207472616e7366657220746f20746865207a65726f206164646044820152637265737360e01b60648201526084016104eb565b610f218383836118b8565b610f2c600082610ce5565b6001600160a01b0383166000908152600360205260408120805460019290610f55908490612b45565b90915550506001600160a01b0382166000908152600360205260408120805460019290610f83908490612bb8565b909155505060008181526002602052604080822080546001600160a01b0319166001600160a01b0386811691821790925591518493918716917fddf252ad1be2c89b69c2b068fc378daa952ba7f163c4a11628f55a4df523b3ef91a4505050565b426014556000600a82108015610ffd5750600a601a5410155b1561100a57506000611083565b60148211801561101d57506014601a5411155b1561102a57506001611083565b6014601a54118061103d5750600a601a54105b1561104a57506000611083565b61107d604051806040016040528060128152602001714e4f5448494e4720544f205550444154452160701b815250611464565b50601a55565b60005b6012548110156111515761113f81601b84815481106110a7576110a7612b19565b9060005260206000200180546110bc90612a5e565b80601f01602080910402602001604051908101604052809291908181526020018280546110e890612a5e565b80156111355780601f1061110a57610100808354040283529160200191611135565b820191906000526020600020905b81548152906001019060200180831161111857829003601f168201915b50505050506111a8565b8061114981612bd0565b915050611086565b50601a8290556040518181527ff9f09f023fbfb7bdeb798aa50802e70859bc440481c704717e1030095c13e7829060200160405180910390a15050565b6109278282604051806020016040528060008152506118c3565b6111b182610cc8565b6112145760405162461bcd60e51b815260206004820152602e60248201527f45524337323155524953746f726167653a2055524920736574206f66206e6f6e60448201526d32bc34b9ba32b73a103a37b5b2b760911b60648201526084016104eb565b6000828152600a602090815260409091208251610621928401906125f1565b600061124960185430632a3508dc60e01b6118f6565b90506113096040518060400160405280600781526020016633b2b7a539b7b760c91b8152506019805461127b90612a5e565b80601f01602080910402602001604051908101604052809291908181526020018280546112a790612a5e565b80156112f45780601f106112c9576101008083540402835291602001916112f4565b820191906000526020600020905b8154815290600101906020018083116112d757829003601f168201915b50505050508361191b9092919063ffffffff16565b611340604051806040016040528060088152602001676461746546726f6d60c01b815250611338601454611939565b83919061191b565b61136b6040518060400160405280600681526020016564617465546f60d01b81525061133842611939565b6113b9604051806040016040528060068152602001651b595d1a1bd960d21b8152506040518060400160405280600381526020016241564760e81b8152508361191b9092919063ffffffff16565b6114086040518060400160405280600681526020016531b7b63ab6b760d11b81525060405180604001604052806004815260200163074656d760e41b8152508361191b9092919063ffffffff16565b61145860405180604001604052806005815260200164756e69747360d81b815250604051806040016040528060068152602001656d657472696360d01b8152508361191b9092919063ffffffff16565b6109278160165461195a565b610ca0816040516024016114789190612750565b60408051601f198184030181529190526020810180516001600160e01b031663104c13eb60e21b17905261197b565b6060816114cb5750506040805180820190915260018152600360fc1b602082015290565b8160005b81156114f557806114df81612bd0565b91506114ee9050600a83612c01565b91506114cf565b60008167ffffffffffffffff81111561151057611510612939565b6040519080825280601f01601f19166020018201604052801561153a576020820181803683370190505b5090505b8415610e355761154f600183612b45565b915061155c600a86612c15565b611567906030612bb8565b60f81b81838151811061157c5761157c612b19565b60200101906001600160f81b031916908160001a90535061159e600a86612c01565b945061153e565b600b80546001600160a01b038381166001600160a01b0319831681179093556040519116919082907f8be0079c531659141344cd1fd0a4f28419497f9722a3daafe3b4186f6b6457e090600090a35050565b816001600160a01b0316836001600160a01b031614156116595760405162461bcd60e51b815260206004820152601960248201527f4552433732313a20617070726f766520746f2063616c6c65720000000000000060448201526064016104eb565b6001600160a01b03838116600081815260056020908152604080832094871680845294825291829020805460ff191686151590811790915591519182527f17307eab39ab6107e8899845ad3d59bd9653f200f220920489ca2b5937696c31910160405180910390a3505050565b6116d1848484610e3d565b6116dd8484848461199c565b610bf75760405162461bcd60e51b81526004016104eb90612c29565b606061170482610cc8565b61176a5760405162461bcd60e51b815260206004820152603160248201527f45524337323155524953746f726167653a2055524920717565727920666f72206044820152703737b732bc34b9ba32b73a103a37b5b2b760791b60648201526084016104eb565b6000828152600a60205260408120805461178390612a5e565b80601f01602080910402602001604051908101604052809291908181526020018280546117af90612a5e565b80156117fc5780601f106117d1576101008083540402835291602001916117fc565b820191906000526020600020905b8154815290600101906020018083116117df57829003601f168201915b50505050509050600061181a60408051602081019091526000815290565b905080516000141561182d575092915050565b81511561185f578082604051602001611847929190612c7b565b60405160208183030381529060405292505050919050565b610e3584611aa9565b60006001600160e01b031982166380ac58cd60e01b148061189957506001600160e01b03198216635b5e139f60e01b145b806103eb57506301ffc9a760e01b6001600160e01b03198316146103eb565b610621838383611b80565b6118cd8383611c38565b6118da600084848461199c565b6106215760405162461bcd60e51b81526004016104eb90612c29565b6118fe612675565b611906612675565b61191281868686611d77565b95945050505050565b608083015161192a9083611db4565b60808301516106219082611db4565b6060600080600061194985611dcb565b9250925092506119128383836109fc565b600f54600090611974906001600160a01b03168484611dea565b9392505050565b80516a636f6e736f6c652e6c6f67602083016000808483855afa5050505050565b60006001600160a01b0384163b15611a9e57604051630a85bd0160e11b81526001600160a01b0385169063150b7a02906119e0903390899088908890600401612caa565b602060405180830381600087803b1580156119fa57600080fd5b505af1925050508015611a2a575060408051601f3d908101601f19168201909252611a2791810190612cdd565b60015b611a84573d808015611a58576040519150601f19603f3d011682016040523d82523d6000602084013e611a5d565b606091505b508051611a7c5760405162461bcd60e51b81526004016104eb90612c29565b805181602001fd5b6001600160e01b031916630a85bd0160e11b149050610e35565b506001949350505050565b6060611ab482610cc8565b611b185760405162461bcd60e51b815260206004820152602f60248201527f4552433732314d657461646174613a2055524920717565727920666f72206e6f60448201526e3732bc34b9ba32b73a103a37b5b2b760891b60648201526084016104eb565b6000611b2f60408051602081019091526000815290565b90506000815111611b4f5760405180602001604052806000815250611974565b80611b59846114a7565b604051602001611b6a929190612c7b565b6040516020818303038152906040529392505050565b6001600160a01b038316611bdb57611bd681600880546000838152600960205260408120829055600182018355919091527ff3f7a9fe364faab93b216da50a3214154f22a0a2b415b23a84c8169e8b636ee30155565b611bfe565b816001600160a01b0316836001600160a01b031614611bfe57611bfe8382611e7d565b6001600160a01b038216611c155761062181611f1a565b826001600160a01b0316826001600160a01b031614610621576106218282611fc9565b6001600160a01b038216611c8e5760405162461bcd60e51b815260206004820181905260248201527f4552433732313a206d696e7420746f20746865207a65726f206164647265737360448201526064016104eb565b611c9781610cc8565b15611ce45760405162461bcd60e51b815260206004820152601c60248201527f4552433732313a20746f6b656e20616c7265616479206d696e7465640000000060448201526064016104eb565b611cf0600083836118b8565b6001600160a01b0382166000908152600360205260408120805460019290611d19908490612bb8565b909155505060008181526002602052604080822080546001600160a01b0319166001600160a01b03861690811790915590518392907fddf252ad1be2c89b69c2b068fc378daa952ba7f163c4a11628f55a4df523b3ef908290a45050565b611d7f612675565b611d8f856080015161010061200d565b50509183526001600160a01b031660208301526001600160e01b031916604082015290565b611dc18260038351612072565b6106218282612181565b60008080611ddd6201518085046121a8565b9196909550909350915050565b601054600090611dfb816001612bb8565b601055835160408086015160808701515191516000936320214ca360e11b93611e339386938493923092918a91600191602401612cfa565b60408051601f198184030181529190526020810180516001600160e01b03166001600160e01b0319909316929092179091529050611e7386838684612244565b9695505050505050565b60006001611e8a84610aee565b611e949190612b45565b600083815260076020526040902054909150808214611ee7576001600160a01b03841660009081526006602090815260408083208584528252808320548484528184208190558352600790915290208190555b5060009182526007602090815260408084208490556001600160a01b039094168352600681528383209183525290812055565b600854600090611f2c90600190612b45565b60008381526009602052604081205460088054939450909284908110611f5457611f54612b19565b906000526020600020015490508060088381548110611f7557611f75612b19565b6000918252602080832090910192909255828152600990915260408082208490558582528120556008805480611fad57611fad612d62565b6001900381819060005260206000200160009055905550505050565b6000611fd483610aee565b6001600160a01b039093166000908152600660209081526040808320868452825280832085905593825260079052919091209190915550565b60408051808201909152606081526000602082015261202d602083612c15565b156120555761203d602083612c15565b612048906020612b45565b6120529083612bb8565b91505b506020828101829052604080518085526000815290920101905290565b60178167ffffffffffffffff161161209757610bf78360e0600585901b1683176123b1565b60ff8167ffffffffffffffff16116120d5576120be836018611fe0600586901b16176123b1565b50610bf78367ffffffffffffffff831660016123d6565b61ffff8167ffffffffffffffff1611612114576120fd836019611fe0600586901b16176123b1565b50610bf78367ffffffffffffffff831660026123d6565b63ffffffff8167ffffffffffffffff16116121555761213e83601a611fe0600586901b16176123b1565b50610bf78367ffffffffffffffff831660046123d6565b61216a83601b611fe0600586901b16176123b1565b50610bf78367ffffffffffffffff831660086123d6565b604080518082019091526060815260006020820152611974838460000151518485516123fc565b60008080836226496581018262023ab1600483020590506004600362023ab18302010590910390600062164b09610fa0600185010205905060046105b58202058303601f019250600061098f846050028161220557612205612beb565b0590506000605061098f83020585039050600b820560301994909401606402929092018301996002600c90940290910392909201975095509350505050565b6040516bffffffffffffffffffffffff193060601b1660208201526034810184905260009060540160408051808303601f1901815282825280516020918201206000818152601190925291812080546001600160a01b0319166001600160a01b038a1617905590925082917fb5e6e01e79f91267dc17b4e6314d5d4d03593d2ceee0fbb452b750bd70ea5af99190a2600e54604051630200057560e51b81526001600160a01b0390911690634000aea09061230790889087908790600401612d78565b602060405180830381600087803b15801561232157600080fd5b505af1158015612335573d6000803e3d6000fd5b505050506040513d601f19601f820116820180604052508101906123599190612d9f565b610e355760405162461bcd60e51b815260206004820152602360248201527f756e61626c6520746f207472616e73666572416e6443616c6c20746f206f7261604482015262636c6560e81b60648201526084016104eb565b60408051808201909152606081526000602082015261197483846000015151846124e6565b604080518082019091526060815260006020820152610e35848560000151518585612542565b604080518082019091526060815260006020820152825182111561241f57600080fd5b602085015161242e8386612bb8565b111561246157612461856124518760200151878661244c9190612bb8565b6125c3565b61245c906002612dbc565b6125da565b6000808651805187602083010193508088870111156124805787860182525b505050602084015b602084106124c0578051825261249f602083612bb8565b91506124ac602082612bb8565b90506124b9602085612b45565b9350612488565b51815160001960208690036101000a019081169019919091161790525083949350505050565b6040805180820190915260608152600060208201528360200151831061251b5761251b848560200151600261245c9190612dbc565b835180516020858301018481535080851415612538576001810182525b5093949350505050565b60408051808201909152606081526000602082015260208501516125668584612bb8565b111561257a5761257a856124518685612bb8565b6000600161258a84610100612ebf565b6125949190612b45565b90508551838682010185831982511617815250805184870111156125b85783860181525b509495945050505050565b6000818311156125d45750816103eb565b50919050565b81516125e6838361200d565b50610bf78382612181565b8280546125fd90612a5e565b90600052602060002090601f01602090048101928261261f5760008555612665565b82601f1061263857805160ff1916838001178555612665565b82800160010185558215612665579182015b8281111561266557825182559160200191906001019061264a565b506126719291506126b0565b5090565b6040805160a0810182526000808252602080830182905282840182905260608084018390528451808601909552845283015290608082015290565b5b8082111561267157600081556001016126b1565b6001600160e01b031981168114610ca057600080fd5b6000602082840312156126ed57600080fd5b8135611974816126c5565b60005b838110156127135781810151838201526020016126fb565b83811115610bf75750506000910152565b6000815180845261273c8160208601602086016126f8565b601f01601f19169290920160200192915050565b6020815260006119746020830184612724565b60006020828403121561277557600080fd5b5035919050565b80356001600160a01b038116811461279357600080fd5b919050565b600080604083850312156127ab57600080fd5b6127b48361277c565b946020939093013593505050565b6000806000606084860312156127d757600080fd5b6127e08461277c565b92506127ee6020850161277c565b9150604084013590509250925092565b6000806040838503121561281157600080fd5b50508035926020909101359150565b60006020828403121561283257600080fd5b6119748261277c565b6000806020838503121561284e57600080fd5b823567ffffffffffffffff8082111561286657600080fd5b818501915085601f83011261287a57600080fd5b81358181111561288957600080fd5b86602082850101111561289b57600080fd5b60209290920196919550909350505050565b6000806000606084860312156128c257600080fd5b505081359360208301359350604090920135919050565b8215158152604060208201526000610e356040830184612724565b8015158114610ca057600080fd5b6000806040838503121561291557600080fd5b61291e8361277c565b9150602083013561292e816128f4565b809150509250929050565b634e487b7160e01b600052604160045260246000fd5b6000806000806080858703121561296557600080fd5b61296e8561277c565b935061297c6020860161277c565b925060408501359150606085013567ffffffffffffffff808211156129a057600080fd5b818701915087601f8301126129b457600080fd5b8135818111156129c6576129c6612939565b604051601f8201601f19908116603f011681019083821181831017156129ee576129ee612939565b816040528281528a6020848701011115612a0757600080fd5b82602086016020830137600060208483010152809550505050505092959194509250565b60008060408385031215612a3e57600080fd5b612a478361277c565b9150612a556020840161277c565b90509250929050565b600181811c90821680612a7257607f821691505b602082108114156125d457634e487b7160e01b600052602260045260246000fd5b60208082526031908201527f4552433732313a207472616e736665722063616c6c6572206973206e6f74206f6040820152701ddb995c881b9bdc88185c1c1c9bdd9959607a1b606082015260800190565b6020808252818101527f4f776e61626c653a2063616c6c6572206973206e6f7420746865206f776e6572604082015260600190565b634e487b7160e01b600052603260045260246000fd5b634e487b7160e01b600052601160045260246000fd5b600082821015612b5757612b57612b2f565b500390565b60008451612b6e8184602089016126f8565b80830190506201016960ed1b8082528551612b90816003850160208a016126f8565b60039201918201528351612bab8160068401602088016126f8565b0160060195945050505050565b60008219821115612bcb57612bcb612b2f565b500190565b6000600019821415612be457612be4612b2f565b5060010190565b634e487b7160e01b600052601260045260246000fd5b600082612c1057612c10612beb565b500490565b600082612c2457612c24612beb565b500690565b60208082526032908201527f4552433732313a207472616e7366657220746f206e6f6e20455243373231526560408201527131b2b4bb32b91034b6b83632b6b2b73a32b960711b606082015260800190565b60008351612c8d8184602088016126f8565b835190830190612ca18183602088016126f8565b01949350505050565b6001600160a01b0385811682528416602082015260408101839052608060608201819052600090611e7390830184612724565b600060208284031215612cef57600080fd5b8151611974816126c5565b6001600160a01b0389811682526020820189905260408201889052861660608201526001600160e01b03198516608082015260a0810184905260c0810183905261010060e08201819052600090612d5383820185612724565b9b9a5050505050505050505050565b634e487b7160e01b600052603160045260246000fd5b60018060a01b03841681528260208201526060604082015260006119126060830184612724565b600060208284031215612db157600080fd5b8151611974816128f4565b6000816000190483118215151615612dd657612dd6612b2f565b500290565b600181815b80851115612e16578160001904821115612dfc57612dfc612b2f565b80851615612e0957918102915b93841c9390800290612de0565b509250929050565b600082612e2d575060016103eb565b81612e3a575060006103eb565b8160018114612e505760028114612e5a57612e76565b60019150506103eb565b60ff841115612e6b57612e6b612b2f565b50506001821b6103eb565b5060208310610133831016604e8410600b8410161715612e99575081810a6103eb565b612ea38383612ddb565b8060001904821115612eb757612eb7612b2f565b029392505050565b60006119748383612e1e56fea2646970667358221220431383ad960f6809996bacf76985e5b3ed35abff2ffc40a109e94b88ef45bbef64736f6c6343000809003368747470733a2f2f697066732e696f2f697066732f516d53334a50434247746d684b33627372726f55743963376f617451344b31464b597741663456746864434e7a643f66696c656e616d653d6772696e6e696e672d737175696e74696e672d666163652e6a736f6e7b2274797065223a2246656174757265436f6c6c656374696f6e222c226665617475726573223a5b7b2274797065223a2246656174757265222c2270726f70657274696573223a7b7d2c2267656f6d65747279223a7b22636f6f7264696e61746573223a5b31302e3138323537373536363730363338352c33362e38303236323632393437313435375d2c2274797065223a22506f696e74227d7d5d7d68747470733a2f2f697066732e696f2f697066732f516d624d4e727a553271526e68527644486d6143687a6641367071333651737759687a4e466f7145576f45614d693f66696c656e616d653d736c696768746c792d736d696c696e672d666163652e6a736f6e68747470733a2f2f697066732e696f2f697066732f516d51665856755833574375515357336e3274576b396754585851587250396b76505936504d37575a4439714b673f66696c656e616d653d70656e736976652d666163652e6a736f6e",
  "linkReferences": {},
  "deployedLinkReferences": {}
}