{
  "_format": "hh-sol-artifact-1",
  "contractName": "WeatherNFT",
  "sourceName": "contracts/WeatherNFT.sol",
  "abi": [
    {
      "inputs": [
        {
          "internalType": "uint256",
          "name": "updateInterval",
          "type": "uint256"
        },
        {
          "internalType": "address",
          "name": "_link",
          "type": "address"
        },
        {
          "internalType": "address",
          "name": "_oracle",
          "type": "address"
        }
      ],
      "stateMutability": "nonpayable",
      "type": "constructor"
    },
    {
      "anonymous": false,
      "inputs": [
        {
          "indexed": true,
          "internalType": "address",
          "name": "owner",
          "type": "address"
        },
        {
          "indexed": true,
          "internalType": "address",
          "name": "approved",
          "type": "address"
        },
        {
          "indexed": true,
          "internalType": "uint256",
          "name": "tokenId",
          "type": "uint256"
        }
      ],
      "name": "Approval",
      "type": "event"
    },
    {
      "anonymous": false,
      "inputs": [
        {
          "indexed": true,
          "internalType": "address",
          "name": "owner",
          "type": "address"
        },
        {
          "indexed": true,
          "internalType": "address",
          "name": "operator",
          "type": "address"
        },
        {
          "indexed": false,
          "internalType": "bool",
          "name": "approved",
          "type": "bool"
        }
      ],
      "name": "ApprovalForAll",
      "type": "event"
    },
    {
      "anonymous": false,
      "inputs": [
        {
          "indexed": true,
          "internalType": "bytes32",
          "name": "id",
          "type": "bytes32"
        }
      ],
      "name": "ChainlinkCancelled",
      "type": "event"
    },
    {
      "anonymous": false,
      "inputs": [
        {
          "indexed": true,
          "internalType": "bytes32",
          "name": "id",
          "type": "bytes32"
        }
      ],
      "name": "ChainlinkFulfilled",
      "type": "event"
    },
    {
      "anonymous": false,
      "inputs": [
        {
          "indexed": true,
          "internalType": "bytes32",
          "name": "id",
          "type": "bytes32"
        }
      ],
      "name": "ChainlinkRequested",
      "type": "event"
    },
    {
      "anonymous": false,
      "inputs": [
        {
          "indexed": true,
          "internalType": "address",
          "name": "previousOwner",
          "type": "address"
        },
        {
          "indexed": true,
          "internalType": "address",
          "name": "newOwner",
          "type": "address"
        }
      ],
      "name": "OwnershipTransferred",
      "type": "event"
    },
    {
      "anonymous": false,
      "inputs": [
        {
          "indexed": true,
          "internalType": "address",
          "name": "from",
          "type": "address"
        },
        {
          "indexed": true,
          "internalType": "address",
          "name": "to",
          "type": "address"
        },
        {
          "indexed": true,
          "internalType": "uint256",
          "name": "tokenId",
          "type": "uint256"
        }
      ],
      "name": "Transfer",
      "type": "event"
    },
    {
      "inputs": [
        {
          "internalType": "address",
          "name": "to",
          "type": "address"
        },
        {
          "internalType": "uint256",
          "name": "tokenId",
          "type": "uint256"
        }
      ],
      "name": "approve",
      "outputs": [],
      "stateMutability": "nonpayable",
      "type": "function"
    },
    {
      "inputs": [
        {
          "internalType": "address",
          "name": "owner",
          "type": "address"
        }
      ],
      "name": "balanceOf",
      "outputs": [
        {
          "internalType": "uint256",
          "name": "",
          "type": "uint256"
        }
      ],
      "stateMutability": "view",
      "type": "function"
    },
    {
      "inputs": [
        {
          "internalType": "bytes",
          "name": "",
          "type": "bytes"
        }
      ],
      "name": "checkUpkeep",
      "outputs": [
        {
          "internalType": "bool",
          "name": "upkeepNeeded",
          "type": "bool"
        },
        {
          "internalType": "bytes",
          "name": "",
          "type": "bytes"
        }
      ],
      "stateMutability": "view",
      "type": "function"
    },
    {
      "inputs": [],
      "name": "currentTemperature",
      "outputs": [
        {
          "internalType": "int256",
          "name": "",
          "type": "int256"
        }
      ],
      "stateMutability": "view",
      "type": "function"
    },
    {
      "inputs": [
        {
          "internalType": "uint256",
          "name": "tokenId",
          "type": "uint256"
        }
      ],
      "name": "getApproved",
      "outputs": [
        {
          "internalType": "address",
          "name": "",
          "type": "address"
        }
      ],
      "stateMutability": "view",
      "type": "function"
    },
    {
      "inputs": [],
      "name": "interval",
      "outputs": [
        {
          "internalType": "uint256",
          "name": "",
          "type": "uint256"
        }
      ],
      "stateMutability": "view",
      "type": "function"
    },
    {
      "inputs": [
        {
          "internalType": "address",
          "name": "owner",
          "type": "address"
        },
        {
          "internalType": "address",
          "name": "operator",
          "type": "address"
        }
      ],
      "name": "isApprovedForAll",
      "outputs": [
        {
          "internalType": "bool",
          "name": "",
          "type": "bool"
        }
      ],
      "stateMutability": "view",
      "type": "function"
    },
    {
      "inputs": [],
      "name": "lastTimestamp",
      "outputs": [
        {
          "internalType": "uint256",
          "name": "",
          "type": "uint256"
        }
      ],
      "stateMutability": "view",
      "type": "function"
    },
    {
      "inputs": [],
      "name": "name",
      "outputs": [
        {
          "internalType": "string",
          "name": "",
          "type": "string"
        }
      ],
      "stateMutability": "view",
      "type": "function"
    },
    {
      "inputs": [],
      "name": "owner",
      "outputs": [
        {
          "internalType": "address",
          "name": "",
          "type": "address"
        }
      ],
      "stateMutability": "view",
      "type": "function"
    },
    {
      "inputs": [
        {
          "internalType": "uint256",
          "name": "tokenId",
          "type": "uint256"
        }
      ],
      "name": "ownerOf",
      "outputs": [
        {
          "internalType": "address",
          "name": "",
          "type": "address"
        }
      ],
      "stateMutability": "view",
      "type": "function"
    },
    {
      "inputs": [
        {
          "internalType": "bytes",
          "name": "",
          "type": "bytes"
        }
      ],
      "name": "performUpkeep",
      "outputs": [],
      "stateMutability": "nonpayable",
      "type": "function"
    },
    {
      "inputs": [],
      "name": "renounceOwnership",
      "outputs": [],
      "stateMutability": "nonpayable",
      "type": "function"
    },
    {
      "inputs": [
        {
          "internalType": "address",
          "name": "to",
          "type": "address"
        }
      ],
      "name": "safeMint",
      "outputs": [],
      "stateMutability": "nonpayable",
      "type": "function"
    },
    {
      "inputs": [
        {
          "internalType": "address",
          "name": "from",
          "type": "address"
        },
        {
          "internalType": "address",
          "name": "to",
          "type": "address"
        },
        {
          "internalType": "uint256",
          "name": "tokenId",
          "type": "uint256"
        }
      ],
      "name": "safeTransferFrom",
      "outputs": [],
      "stateMutability": "nonpayable",
      "type": "function"
    },
    {
      "inputs": [
        {
          "internalType": "address",
          "name": "from",
          "type": "address"
        },
        {
          "internalType": "address",
          "name": "to",
          "type": "address"
        },
        {
          "internalType": "uint256",
          "name": "tokenId",
          "type": "uint256"
        },
        {
          "internalType": "bytes",
          "name": "_data",
          "type": "bytes"
        }
      ],
      "name": "safeTransferFrom",
      "outputs": [],
      "stateMutability": "nonpayable",
      "type": "function"
    },
    {
      "inputs": [
        {
          "internalType": "address",
          "name": "operator",
          "type": "address"
        },
        {
          "internalType": "bool",
          "name": "approved",
          "type": "bool"
        }
      ],
      "name": "setApprovalForAll",
      "outputs": [],
      "stateMutability": "nonpayable",
      "type": "function"
    },
    {
      "inputs": [
        {
          "internalType": "bytes4",
          "name": "interfaceId",
          "type": "bytes4"
        }
      ],
      "name": "supportsInterface",
      "outputs": [
        {
          "internalType": "bool",
          "name": "",
          "type": "bool"
        }
      ],
      "stateMutability": "view",
      "type": "function"
    },
    {
      "inputs": [],
      "name": "symbol",
      "outputs": [
        {
          "internalType": "string",
          "name": "",
          "type": "string"
        }
      ],
      "stateMutability": "view",
      "type": "function"
    },
    {
      "inputs": [
        {
          "internalType": "uint256",
          "name": "index",
          "type": "uint256"
        }
      ],
      "name": "tokenByIndex",
      "outputs": [
        {
          "internalType": "uint256",
          "name": "",
          "type": "uint256"
        }
      ],
      "stateMutability": "view",
      "type": "function"
    },
    {
      "inputs": [
        {
          "internalType": "address",
          "name": "owner",
          "type": "address"
        },
        {
          "internalType": "uint256",
          "name": "index",
          "type": "uint256"
        }
      ],
      "name": "tokenOfOwnerByIndex",
      "outputs": [
        {
          "internalType": "uint256",
          "name": "",
          "type": "uint256"
        }
      ],
      "stateMutability": "view",
      "type": "function"
    },
    {
      "inputs": [
        {
          "internalType": "uint256",
          "name": "tokenId",
          "type": "uint256"
        }
      ],
      "name": "tokenURI",
      "outputs": [
        {
          "internalType": "string",
          "name": "",
          "type": "string"
        }
      ],
      "stateMutability": "view",
      "type": "function"
    },
    {
      "inputs": [],
      "name": "totalSupply",
      "outputs": [
        {
          "internalType": "uint256",
          "name": "",
          "type": "uint256"
        }
      ],
      "stateMutability": "view",
      "type": "function"
    },
    {
      "inputs": [
        {
          "internalType": "address",
          "name": "from",
          "type": "address"
        },
        {
          "internalType": "address",
          "name": "to",
          "type": "address"
        },
        {
          "internalType": "uint256",
          "name": "tokenId",
          "type": "uint256"
        }
      ],
      "name": "transferFrom",
      "outputs": [],
      "stateMutability": "nonpayable",
      "type": "function"
    },
    {
      "inputs": [
        {
          "internalType": "address",
          "name": "newOwner",
          "type": "address"
        }
      ],
      "name": "transferOwnership",
      "outputs": [],
      "stateMutability": "nonpayable",
      "type": "function"
    }
  ],
  "bytecode": "0x6001601055610180604052606760e0818152608091829190620025116101003981526020016040518060a0016040528060698152602001620024a86069913981526020016040518060800160405280605e815260200162002578605e913990526200006f906016906003620001c7565b503480156200007d57600080fd5b50604051620025d6380380620025d6833981016040819052620000a0916200034d565b604080518082018252600a81526915d9585d1a195c93919560b21b60208083019182528351808501909452600784526615d5121493919560ca1b908401528151919291620000f1916000916200022b565b508051620001079060019060208401906200022b565b505050620001246200011e6200017160201b60201c565b62000175565b601383905542601455600e80546001600160a01b0319166001600160a01b038416179055600f80546001600160a01b0319166001600160a01b0383161790555050600060155550620003cb565b3390565b600b80546001600160a01b038381166001600160a01b0319831681179093556040519116919082907f8be0079c531659141344cd1fd0a4f28419497f9722a3daafe3b4186f6b6457e090600090a35050565b82805482825590600052602060002090810192821562000219579160200282015b82811115620002195782518051620002089184916020909101906200022b565b5091602001919060010190620001e8565b5062000227929150620002b6565b5090565b82805462000239906200038e565b90600052602060002090601f0160209004810192826200025d5760008555620002a8565b82601f106200027857805160ff1916838001178555620002a8565b82800160010185558215620002a8579182015b82811115620002a85782518255916020019190600101906200028b565b5062000227929150620002d7565b8082111562000227576000620002cd8282620002ee565b50600101620002b6565b5b80821115620002275760008155600101620002d8565b508054620002fc906200038e565b6000825580601f106200030d575050565b601f0160209004906000526020600020908101906200032d9190620002d7565b50565b80516001600160a01b03811681146200034857600080fd5b919050565b6000806000606084860312156200036357600080fd5b83519250620003756020850162000330565b9150620003856040850162000330565b90509250925092565b600181811c90821680620003a357607f821691505b60208210811415620003c557634e487b7160e01b600052602260045260246000fd5b50919050565b6120cd80620003db6000396000f3fe608060405234801561001057600080fd5b50600436106101735760003560e01c80636352211e116100de57806395d89b4111610097578063c87b56dd11610071578063c87b56dd14610319578063cf990eb31461032c578063e985e9c514610335578063f2fde38b1461037157600080fd5b806395d89b41146102eb578063a22cb465146102f3578063b88d4fde1461030657600080fd5b80636352211e146102825780636e04ff0d1461029557806370a08231146102b6578063715018a6146102c95780638da5cb5b146102d1578063947a36fb146102e257600080fd5b806323b872dd1161013057806323b872dd146102105780632f745c591461022357806340d097c31461023657806342842e0e146102495780634585e33b1461025c5780634f6ccce71461026f57600080fd5b806301ffc9a71461017857806306fdde03146101a0578063081812fc146101b5578063095ea7b3146101e057806318160ddd146101f557806319d8ac6114610207575b600080fd5b61018b610186366004611b05565b610384565b60405190151581526020015b60405180910390f35b6101a8610395565b6040516101979190611b7a565b6101c86101c3366004611b8d565b610427565b6040516001600160a01b039091168152602001610197565b6101f36101ee366004611bc2565b6104b4565b005b6008545b604051908152602001610197565b6101f960145481565b6101f361021e366004611bec565b6105ca565b6101f9610231366004611bc2565b6105fb565b6101f3610244366004611c28565b610691565b6101f3610257366004611bec565b610795565b6101f361026a366004611c43565b6107b0565b6101f961027d366004611b8d565b610973565b6101c8610290366004611b8d565b610a06565b6102a86102a3366004611c43565b610a7d565b604051610197929190611cb5565b6101f96102c4366004611c28565b610a9c565b6101f3610b23565b600b546001600160a01b03166101c8565b6101f960135481565b6101a8610b59565b6101f3610301366004611cd0565b610b68565b6101f3610314366004611d22565b610b73565b6101a8610327366004611b8d565b610bab565b6101f960155481565b61018b610343366004611dfe565b6001600160a01b03918216600090815260056020908152604080832093909416825291909152205460ff1690565b6101f361037f366004611c28565b610bb6565b600061038f82610c51565b92915050565b6060600080546103a490611e31565b80601f01602080910402602001604051908101604052809291908181526020018280546103d090611e31565b801561041d5780601f106103f25761010080835404028352916020019161041d565b820191906000526020600020905b81548152906001019060200180831161040057829003601f168201915b5050505050905090565b600061043282610c76565b6104985760405162461bcd60e51b815260206004820152602c60248201527f4552433732313a20617070726f76656420717565727920666f72206e6f6e657860448201526b34b9ba32b73a103a37b5b2b760a11b60648201526084015b60405180910390fd5b506000908152600460205260409020546001600160a01b031690565b60006104bf82610a06565b9050806001600160a01b0316836001600160a01b0316141561052d5760405162461bcd60e51b815260206004820152602160248201527f4552433732313a20617070726f76616c20746f2063757272656e74206f776e656044820152603960f91b606482015260840161048f565b336001600160a01b038216148061054957506105498133610343565b6105bb5760405162461bcd60e51b815260206004820152603860248201527f4552433732313a20617070726f76652063616c6c6572206973206e6f74206f7760448201527f6e6572206e6f7220617070726f76656420666f7220616c6c0000000000000000606482015260840161048f565b6105c58383610c93565b505050565b6105d43382610d01565b6105f05760405162461bcd60e51b815260040161048f90611e6c565b6105c5838383610deb565b600061060683610a9c565b82106106685760405162461bcd60e51b815260206004820152602b60248201527f455243373231456e756d657261626c653a206f776e657220696e646578206f7560448201526a74206f6620626f756e647360a81b606482015260840161048f565b506001600160a01b03919091166000908152600660209081526040808320938352929052205490565b600b546001600160a01b031633146106bb5760405162461bcd60e51b815260040161048f90611ebd565b60006106c660125490565b90506106d6601280546001019055565b6106e08282610f92565b600060166000815481106106f6576106f6611ef2565b90600052602060002001805461070b90611e31565b80601f016020809104026020016040519081016040528092919081815260200182805461073790611e31565b80156107845780601f1061075957610100808354040283529160200191610784565b820191906000526020600020905b81548152906001019060200180831161076757829003601f168201915b505050505090506105c58282610fac565b6105c583838360405180602001604052806000815250610b73565b6013546014546107c09042611f1e565b11156109315742601455600080600a601554126107df5750600061085a565b6014821380156107f25750601460155413155b156107ff5750600161085a565b601460155413806108125750600a601554125b1561081f5750600061085a565b610852604051806040016040528060128152602001714e4f5448494e4720544f205550444154452160701b815250611037565b506015555050565b60005b60125481101561092857610916816016848154811061087e5761087e611ef2565b90600052602060002001805461089390611e31565b80601f01602080910402602001604051908101604052809291908181526020018280546108bf90611e31565b801561090c5780601f106108e15761010080835404028352916020019161090c565b820191906000526020600020905b8154815290600101906020018083116108ef57829003601f168201915b5050505050610fac565b8061092081611f35565b91505061085d565b50506015555050565b61096f6040518060400160405280602081526020017f55504b45455020494e54455256414c204953205354494c4c204e4f5420555021815250611037565b5050565b600061097e60085490565b82106109e15760405162461bcd60e51b815260206004820152602c60248201527f455243373231456e756d657261626c653a20676c6f62616c20696e646578206f60448201526b7574206f6620626f756e647360a01b606482015260840161048f565b600882815481106109f4576109f4611ef2565b90600052602060002001549050919050565b6000818152600260205260408120546001600160a01b03168061038f5760405162461bcd60e51b815260206004820152602960248201527f4552433732313a206f776e657220717565727920666f72206e6f6e657869737460448201526832b73a103a37b5b2b760b91b606482015260840161048f565b6000606060135460145442610a929190611f1e565b1191509250929050565b60006001600160a01b038216610b075760405162461bcd60e51b815260206004820152602a60248201527f4552433732313a2062616c616e636520717565727920666f7220746865207a65604482015269726f206164647265737360b01b606482015260840161048f565b506001600160a01b031660009081526003602052604090205490565b600b546001600160a01b03163314610b4d5760405162461bcd60e51b815260040161048f90611ebd565b610b57600061107a565b565b6060600180546103a490611e31565b61096f3383836110cc565b610b7d3383610d01565b610b995760405162461bcd60e51b815260040161048f90611e6c565b610ba58484848461119b565b50505050565b606061038f826111ce565b600b546001600160a01b03163314610be05760405162461bcd60e51b815260040161048f90611ebd565b6001600160a01b038116610c455760405162461bcd60e51b815260206004820152602660248201527f4f776e61626c653a206e6577206f776e657220697320746865207a65726f206160448201526564647265737360d01b606482015260840161048f565b610c4e8161107a565b50565b60006001600160e01b0319821663780e9d6360e01b148061038f575061038f8261133d565b6000908152600260205260409020546001600160a01b0316151590565b600081815260046020526040902080546001600160a01b0319166001600160a01b0384169081179091558190610cc882610a06565b6001600160a01b03167f8c5be1e5ebec7d5bd14f71427d1e84f3dd0314c0f7b2291e5b200ac8c7c3b92560405160405180910390a45050565b6000610d0c82610c76565b610d6d5760405162461bcd60e51b815260206004820152602c60248201527f4552433732313a206f70657261746f7220717565727920666f72206e6f6e657860448201526b34b9ba32b73a103a37b5b2b760a11b606482015260840161048f565b6000610d7883610a06565b9050806001600160a01b0316846001600160a01b03161480610dbf57506001600160a01b0380821660009081526005602090815260408083209388168352929052205460ff165b80610de35750836001600160a01b0316610dd884610427565b6001600160a01b0316145b949350505050565b826001600160a01b0316610dfe82610a06565b6001600160a01b031614610e625760405162461bcd60e51b815260206004820152602560248201527f4552433732313a207472616e736665722066726f6d20696e636f72726563742060448201526437bbb732b960d91b606482015260840161048f565b6001600160a01b038216610ec45760405162461bcd60e51b8152602060048201526024808201527f4552433732313a207472616e7366657220746f20746865207a65726f206164646044820152637265737360e01b606482015260840161048f565b610ecf83838361138d565b610eda600082610c93565b6001600160a01b0383166000908152600360205260408120805460019290610f03908490611f1e565b90915550506001600160a01b0382166000908152600360205260408120805460019290610f31908490611f50565b909155505060008181526002602052604080822080546001600160a01b0319166001600160a01b0386811691821790925591518493918716917fddf252ad1be2c89b69c2b068fc378daa952ba7f163c4a11628f55a4df523b3ef91a4505050565b61096f828260405180602001604052806000815250611398565b610fb582610c76565b6110185760405162461bcd60e51b815260206004820152602e60248201527f45524337323155524953746f726167653a2055524920736574206f66206e6f6e60448201526d32bc34b9ba32b73a103a37b5b2b760911b606482015260840161048f565b6000828152600a6020908152604090912082516105c592840190611a56565b610c4e8160405160240161104b9190611b7a565b60408051601f198184030181529190526020810180516001600160e01b031663104c13eb60e21b1790526113cb565b600b80546001600160a01b038381166001600160a01b0319831681179093556040519116919082907f8be0079c531659141344cd1fd0a4f28419497f9722a3daafe3b4186f6b6457e090600090a35050565b816001600160a01b0316836001600160a01b0316141561112e5760405162461bcd60e51b815260206004820152601960248201527f4552433732313a20617070726f766520746f2063616c6c657200000000000000604482015260640161048f565b6001600160a01b03838116600081815260056020908152604080832094871680845294825291829020805460ff191686151590811790915591519182527f17307eab39ab6107e8899845ad3d59bd9653f200f220920489ca2b5937696c31910160405180910390a3505050565b6111a6848484610deb565b6111b2848484846113ec565b610ba55760405162461bcd60e51b815260040161048f90611f68565b60606111d982610c76565b61123f5760405162461bcd60e51b815260206004820152603160248201527f45524337323155524953746f726167653a2055524920717565727920666f72206044820152703737b732bc34b9ba32b73a103a37b5b2b760791b606482015260840161048f565b6000828152600a60205260408120805461125890611e31565b80601f016020809104026020016040519081016040528092919081815260200182805461128490611e31565b80156112d15780601f106112a6576101008083540402835291602001916112d1565b820191906000526020600020905b8154815290600101906020018083116112b457829003601f168201915b5050505050905060006112ef60408051602081019091526000815290565b9050805160001415611302575092915050565b81511561133457808260405160200161131c929190611fba565b60405160208183030381529060405292505050919050565b610de3846114f9565b60006001600160e01b031982166380ac58cd60e01b148061136e57506001600160e01b03198216635b5e139f60e01b145b8061038f57506301ffc9a760e01b6001600160e01b031983161461038f565b6105c58383836115d1565b6113a28383611689565b6113af60008484846113ec565b6105c55760405162461bcd60e51b815260040161048f90611f68565b80516a636f6e736f6c652e6c6f67602083016000808483855afa5050505050565b60006001600160a01b0384163b156114ee57604051630a85bd0160e11b81526001600160a01b0385169063150b7a0290611430903390899088908890600401611fe9565b602060405180830381600087803b15801561144a57600080fd5b505af192505050801561147a575060408051601f3d908101601f1916820190925261147791810190612026565b60015b6114d4573d8080156114a8576040519150601f19603f3d011682016040523d82523d6000602084013e6114ad565b606091505b5080516114cc5760405162461bcd60e51b815260040161048f90611f68565b805181602001fd5b6001600160e01b031916630a85bd0160e11b149050610de3565b506001949350505050565b606061150482610c76565b6115685760405162461bcd60e51b815260206004820152602f60248201527f4552433732314d657461646174613a2055524920717565727920666f72206e6f60448201526e3732bc34b9ba32b73a103a37b5b2b760891b606482015260840161048f565b600061157f60408051602081019091526000815290565b9050600081511161159f57604051806020016040528060008152506115ca565b806115a9846117c8565b6040516020016115ba929190611fba565b6040516020818303038152906040525b9392505050565b6001600160a01b03831661162c5761162781600880546000838152600960205260408120829055600182018355919091527ff3f7a9fe364faab93b216da50a3214154f22a0a2b415b23a84c8169e8b636ee30155565b61164f565b816001600160a01b0316836001600160a01b03161461164f5761164f83826118c6565b6001600160a01b038216611666576105c581611963565b826001600160a01b0316826001600160a01b0316146105c5576105c58282611a12565b6001600160a01b0382166116df5760405162461bcd60e51b815260206004820181905260248201527f4552433732313a206d696e7420746f20746865207a65726f2061646472657373604482015260640161048f565b6116e881610c76565b156117355760405162461bcd60e51b815260206004820152601c60248201527f4552433732313a20746f6b656e20616c7265616479206d696e74656400000000604482015260640161048f565b6117416000838361138d565b6001600160a01b038216600090815260036020526040812080546001929061176a908490611f50565b909155505060008181526002602052604080822080546001600160a01b0319166001600160a01b03861690811790915590518392907fddf252ad1be2c89b69c2b068fc378daa952ba7f163c4a11628f55a4df523b3ef908290a45050565b6060816117ec5750506040805180820190915260018152600360fc1b602082015290565b8160005b8115611816578061180081611f35565b915061180f9050600a83612059565b91506117f0565b60008167ffffffffffffffff81111561183157611831611d0c565b6040519080825280601f01601f19166020018201604052801561185b576020820181803683370190505b5090505b8415610de357611870600183611f1e565b915061187d600a8661206d565b611888906030611f50565b60f81b81838151811061189d5761189d611ef2565b60200101906001600160f81b031916908160001a9053506118bf600a86612059565b945061185f565b600060016118d384610a9c565b6118dd9190611f1e565b600083815260076020526040902054909150808214611930576001600160a01b03841660009081526006602090815260408083208584528252808320548484528184208190558352600790915290208190555b5060009182526007602090815260408084208490556001600160a01b039094168352600681528383209183525290812055565b60085460009061197590600190611f1e565b6000838152600960205260408120546008805493945090928490811061199d5761199d611ef2565b9060005260206000200154905080600883815481106119be576119be611ef2565b60009182526020808320909101929092558281526009909152604080822084905585825281205560088054806119f6576119f6612081565b6001900381819060005260206000200160009055905550505050565b6000611a1d83610a9c565b6001600160a01b039093166000908152600660209081526040808320868452825280832085905593825260079052919091209190915550565b828054611a6290611e31565b90600052602060002090601f016020900481019282611a845760008555611aca565b82601f10611a9d57805160ff1916838001178555611aca565b82800160010185558215611aca579182015b82811115611aca578251825591602001919060010190611aaf565b50611ad6929150611ada565b5090565b5b80821115611ad65760008155600101611adb565b6001600160e01b031981168114610c4e57600080fd5b600060208284031215611b1757600080fd5b81356115ca81611aef565b60005b83811015611b3d578181015183820152602001611b25565b83811115610ba55750506000910152565b60008151808452611b66816020860160208601611b22565b601f01601f19169290920160200192915050565b6020815260006115ca6020830184611b4e565b600060208284031215611b9f57600080fd5b5035919050565b80356001600160a01b0381168114611bbd57600080fd5b919050565b60008060408385031215611bd557600080fd5b611bde83611ba6565b946020939093013593505050565b600080600060608486031215611c0157600080fd5b611c0a84611ba6565b9250611c1860208501611ba6565b9150604084013590509250925092565b600060208284031215611c3a57600080fd5b6115ca82611ba6565b60008060208385031215611c5657600080fd5b823567ffffffffffffffff80821115611c6e57600080fd5b818501915085601f830112611c8257600080fd5b813581811115611c9157600080fd5b866020828501011115611ca357600080fd5b60209290920196919550909350505050565b8215158152604060208201526000610de36040830184611b4e565b60008060408385031215611ce357600080fd5b611cec83611ba6565b915060208301358015158114611d0157600080fd5b809150509250929050565b634e487b7160e01b600052604160045260246000fd5b60008060008060808587031215611d3857600080fd5b611d4185611ba6565b9350611d4f60208601611ba6565b925060408501359150606085013567ffffffffffffffff80821115611d7357600080fd5b818701915087601f830112611d8757600080fd5b813581811115611d9957611d99611d0c565b604051601f8201601f19908116603f01168101908382118183101715611dc157611dc1611d0c565b816040528281528a6020848701011115611dda57600080fd5b82602086016020830137600060208483010152809550505050505092959194509250565b60008060408385031215611e1157600080fd5b611e1a83611ba6565b9150611e2860208401611ba6565b90509250929050565b600181811c90821680611e4557607f821691505b60208210811415611e6657634e487b7160e01b600052602260045260246000fd5b50919050565b60208082526031908201527f4552433732313a207472616e736665722063616c6c6572206973206e6f74206f6040820152701ddb995c881b9bdc88185c1c1c9bdd9959607a1b606082015260800190565b6020808252818101527f4f776e61626c653a2063616c6c6572206973206e6f7420746865206f776e6572604082015260600190565b634e487b7160e01b600052603260045260246000fd5b634e487b7160e01b600052601160045260246000fd5b600082821015611f3057611f30611f08565b500390565b6000600019821415611f4957611f49611f08565b5060010190565b60008219821115611f6357611f63611f08565b500190565b60208082526032908201527f4552433732313a207472616e7366657220746f206e6f6e20455243373231526560408201527131b2b4bb32b91034b6b83632b6b2b73a32b960711b606082015260800190565b60008351611fcc818460208801611b22565b835190830190611fe0818360208801611b22565b01949350505050565b6001600160a01b038581168252841660208201526040810183905260806060820181905260009061201c90830184611b4e565b9695505050505050565b60006020828403121561203857600080fd5b81516115ca81611aef565b634e487b7160e01b600052601260045260246000fd5b60008261206857612068612043565b500490565b60008261207c5761207c612043565b500690565b634e487b7160e01b600052603160045260246000fdfea26469706673582212208319346bb26790dc8bb1106276be03aa66d7da7ccdb18c8fc65dd0f315316bed64736f6c6343000809003368747470733a2f2f697066732e696f2f697066732f516d53334a50434247746d684b33627372726f55743963376f617451344b31464b597741663456746864434e7a643f66696c656e616d653d6772696e6e696e672d737175696e74696e672d666163652e6a736f6e68747470733a2f2f697066732e696f2f697066732f516d624d4e727a553271526e68527644486d6143687a6641367071333651737759687a4e466f7145576f45614d693f66696c656e616d653d736c696768746c792d736d696c696e672d666163652e6a736f6e68747470733a2f2f697066732e696f2f697066732f516d51665856755833574375515357336e3274576b396754585851587250396b76505936504d37575a4439714b673f66696c656e616d653d70656e736976652d666163652e6a736f6e",
  "linkReferences": {},
  "deployedLinkReferences": {}
}